{
  "contractName": "AthorisedAccess",
  "abi": [
    {
      "constant": true,
      "inputs": [
        {
          "name": "issuer",
          "type": "address"
        }
      ],
      "name": "isAuthorised",
      "outputs": [
        {
          "name": "",
          "type": "bool"
        }
      ],
      "payable": false,
      "stateMutability": "view",
      "type": "function"
    },
    {
      "constant": false,
      "inputs": [
        {
          "name": "issuer",
          "type": "address"
        }
      ],
      "name": "authorise",
      "outputs": [
        {
          "name": "",
          "type": "bool"
        }
      ],
      "payable": false,
      "stateMutability": "nonpayable",
      "type": "function"
    },
    {
      "constant": false,
      "inputs": [
        {
          "name": "issuer",
          "type": "address"
        }
      ],
      "name": "deauthorise",
      "outputs": [
        {
          "name": "",
          "type": "bool"
        }
      ],
      "payable": false,
      "stateMutability": "nonpayable",
      "type": "function"
    },
    {
      "constant": true,
      "inputs": [],
      "name": "owner",
      "outputs": [
        {
          "name": "",
          "type": "address"
        }
      ],
      "payable": false,
      "stateMutability": "view",
      "type": "function"
    },
    {
      "constant": false,
      "inputs": [
        {
          "name": "newOwner",
          "type": "address"
        }
      ],
      "name": "transferOwnership",
      "outputs": [],
      "payable": false,
      "stateMutability": "nonpayable",
      "type": "function"
    },
    {
      "anonymous": false,
      "inputs": [
        {
          "indexed": false,
          "name": "sender",
          "type": "address"
        },
        {
          "indexed": false,
          "name": "issuer",
          "type": "address"
        }
      ],
      "name": "Athorised",
      "type": "event"
    },
    {
      "anonymous": false,
      "inputs": [
        {
          "indexed": false,
          "name": "sender",
          "type": "address"
        },
        {
          "indexed": false,
          "name": "issuer",
          "type": "address"
        }
      ],
      "name": "Deathorised",
      "type": "event"
    },
    {
      "anonymous": false,
      "inputs": [
        {
          "indexed": true,
          "name": "previousOwner",
          "type": "address"
        },
        {
          "indexed": true,
          "name": "newOwner",
          "type": "address"
        }
      ],
      "name": "OwnershipTransferred",
      "type": "event"
    }
  ],
  "bytecode": "0x606060405260008054600160a060020a033316600160a060020a031990911617905561033c806100306000396000f300606060405263ffffffff7c010000000000000000000000000000000000000000000000000000000060003504166351b699cd811461006857806366e6c8af1461009b5780638acbddf0146100ba5780638da5cb5b146100d9578063f2fde38b1461010857600080fd5b341561007357600080fd5b610087600160a060020a0360043516610129565b604051901515815260200160405180910390f35b34156100a657600080fd5b610087600160a060020a0360043516610147565b34156100c557600080fd5b610087600160a060020a03600435166101d9565b34156100e457600080fd5b6100ec610266565b604051600160a060020a03909116815260200160405180910390f35b341561011357600080fd5b610127600160a060020a0360043516610275565b005b600160a060020a031660009081526001602052604090205460ff1690565b6000805433600160a060020a0390811691161461016357600080fd5b600160a060020a038216600090815260016020819052604091829020805460ff191690911790557f5188670da5f6f84c934c6a45a13476b15bc323bafd731f60f712a1d1b0cb5c24903390849051600160a060020a039283168152911660208201526040908101905180910390a1506001919050565b6000805433600160a060020a039081169116146101f557600080fd5b600160a060020a03821660009081526001602052604090819020805460ff191690557f9762c93253f990225e394aff0913b20d2a6b01f5f2885f48621d15cac64afbcd903390849051600160a060020a039283168152911660208201526040908101905180910390a1506001919050565b600054600160a060020a031681565b60005433600160a060020a0390811691161461029057600080fd5b600160a060020a03811615156102a557600080fd5b600054600160a060020a0380831691167f8be0079c531659141344cd1fd0a4f28419497f9722a3daafe3b4186f6b6457e060405160405180910390a36000805473ffffffffffffffffffffffffffffffffffffffff1916600160a060020a03929092169190911790555600a165627a7a723058202339dff4f40a8df70ccb34bc174a0b7cfbca330cd55e12417bb99e6e6484defa0029",
  "source": "pragma solidity ^0.4.17;\n\nimport \"../ownership/Ownable.sol\";\n\n/**\n * @title AthorisedAccess\n * @dev This contract allows to organise a permission based access.\n */\ncontract AthorisedAccess is Ownable {\n    event Athorised(address sender, address issuer);\n    event Deathorised(address sender, address issuer);\n\n    mapping (address => bool) issuers;\n\n    /**\n     * @dev Throws if called by any account other than the athorised issuer.\n     * @notice Owner is not authorised by default.\n    */\n    function authorisedCall() internal view returns (bool) {\n        require(isAuthorised(msg.sender));\n        return true;\n    }\n    \n    /**\n     * @dev Authorises a new issuer (trusted ethereum address) to issue and revoke documents.\n     */\n    function authorise(address issuer) onlyOwner external returns (bool) {\n        issuers[issuer] = true;\n        Athorised(msg.sender, issuer);\n\n        return true;\n    }\n\n    /**\n     * @dev Deauthorises existing issuer.\n     */\n    function deauthorise(address issuer) onlyOwner external returns (bool) {\n        issuers[issuer] = false;\n        Deathorised(msg.sender, issuer);\n\n        return true;\n    }\n\n    /**\n     * Indicates whether issuer has been authorised.\n     */\n    function isAuthorised(address issuer) public view returns (bool) {\n        return issuers[issuer];\n    }\n}",
  "sourcePath": "/Users/maxdinman/Documents/Sites/ethereum-poe/contracts/core/AthorisedAccess.sol",
  "schemaVersion": "1.0.0",
  "updatedAt": "2017-10-16T12:39:52.791Z"
}