{
  "contractName": "BasicDocument",
  "abi": [
    {
      "constant": false,
      "inputs": [
        {
          "name": "recipient",
          "type": "address"
        },
        {
          "name": "document",
          "type": "bytes32"
        }
      ],
      "name": "issueDocument",
      "outputs": [
        {
          "name": "",
          "type": "bool"
        }
      ],
      "payable": true,
      "stateMutability": "payable",
      "type": "function"
    },
    {
      "constant": true,
      "inputs": [],
      "name": "owner",
      "outputs": [
        {
          "name": "",
          "type": "address"
        }
      ],
      "payable": false,
      "stateMutability": "view",
      "type": "function"
    },
    {
      "constant": false,
      "inputs": [
        {
          "name": "newOwner",
          "type": "address"
        }
      ],
      "name": "transferOwnership",
      "outputs": [],
      "payable": false,
      "stateMutability": "nonpayable",
      "type": "function"
    },
    {
      "anonymous": false,
      "inputs": [
        {
          "indexed": false,
          "name": "issuer",
          "type": "address"
        },
        {
          "indexed": false,
          "name": "recipient",
          "type": "address"
        },
        {
          "indexed": true,
          "name": "document",
          "type": "bytes32"
        }
      ],
      "name": "DocumentIssued",
      "type": "event"
    },
    {
      "anonymous": false,
      "inputs": [
        {
          "indexed": true,
          "name": "previousOwner",
          "type": "address"
        },
        {
          "indexed": true,
          "name": "newOwner",
          "type": "address"
        }
      ],
      "name": "OwnershipTransferred",
      "type": "event"
    }
  ],
  "bytecode": "0x606060405260008054600160a060020a033316600160a060020a0319909116179055610268806100306000396000f300606060405263ffffffff7c01000000000000000000000000000000000000000000000000000000006000350416634889da6381146100525780638da5cb5b1461007d578063f2fde38b146100ac57600080fd5b610069600160a060020a03600435166024356100cd565b604051901515815260200160405180910390f35b341561008857600080fd5b610090610192565b604051600160a060020a03909116815260200160405180910390f35b34156100b757600080fd5b6100cb600160a060020a03600435166101a1565b005b600081815260016020526040812054600160a060020a0316156100ef57600080fd5b6000828152600160208190526040918290208054600160a060020a033381811673ffffffffffffffffffffffffffffffffffffffff199384161784559383018054918916919092161790554360029091015583917fcd188cdb7843f0d2cf4a16b83cc2c18f10e280551d698e65e095976c2ef890f39190869051600160a060020a039283168152911660208201526040908101905180910390a250600192915050565b600054600160a060020a031681565b60005433600160a060020a039081169116146101bc57600080fd5b600160a060020a03811615156101d157600080fd5b600054600160a060020a0380831691167f8be0079c531659141344cd1fd0a4f28419497f9722a3daafe3b4186f6b6457e060405160405180910390a36000805473ffffffffffffffffffffffffffffffffffffffff1916600160a060020a03929092169190911790555600a165627a7a72305820b090bd526235c74950382c6eed8f50c5a418db6927d1b45e85b674b4aaa249cd0029",
  "source": "pragma solidity ^0.4.17;\n\nimport \"../ownership/Ownable.sol\";\n\n/**\n * @title Document\n * @dev This basic contract allows to issue documents.\n */\ncontract BasicDocument is Ownable {\n    event DocumentIssued(address issuer, address recipient, bytes32 indexed document);\n\n    struct DocumentBody {\n        address issuer;\n        address recipient;\n        uint256 block;\n    }\n\n    mapping (bytes32 => DocumentBody) documents;\n\n    /**\n     * @dev Issues document.\n     * @dev Anyone who knows the contract address can issue documents. \n     */\n    function issueDocument(address recipient, bytes32 document) payable public returns (bool) {\n        require(documents[document].issuer == address(0));\n\n        documents[document].issuer = msg.sender;\n        documents[document].recipient = recipient;\n        documents[document].block = block.number;\n\n        DocumentIssued(msg.sender, recipient, document);\n\n        return true;\n    }\n}",
  "sourcePath": "/Users/maxdinman/Documents/Sites/ethereum-poe/contracts/core/BasicDocument.sol",
  "schemaVersion": "1.0.0",
  "updatedAt": "2017-10-20T08:54:02.053Z"
}