{
  "contractName": "Builder",
  "abi": [
    {
      "constant": false,
      "inputs": [
        {
          "name": "_beneficiary",
          "type": "address"
        }
      ],
      "name": "setBeneficiary",
      "outputs": [],
      "payable": false,
      "stateMutability": "nonpayable",
      "type": "function"
    },
    {
      "constant": false,
      "inputs": [
        {
          "name": "_buildingCostWei",
          "type": "uint256"
        }
      ],
      "name": "setCost",
      "outputs": [],
      "payable": false,
      "stateMutability": "nonpayable",
      "type": "function"
    },
    {
      "constant": true,
      "inputs": [],
      "name": "owner",
      "outputs": [
        {
          "name": "",
          "type": "address"
        }
      ],
      "payable": false,
      "stateMutability": "view",
      "type": "function"
    },
    {
      "constant": false,
      "inputs": [
        {
          "name": "newOwner",
          "type": "address"
        }
      ],
      "name": "transferOwnership",
      "outputs": [],
      "payable": false,
      "stateMutability": "nonpayable",
      "type": "function"
    },
    {
      "inputs": [],
      "payable": false,
      "stateMutability": "nonpayable",
      "type": "constructor"
    },
    {
      "payable": true,
      "stateMutability": "payable",
      "type": "fallback"
    },
    {
      "anonymous": false,
      "inputs": [
        {
          "indexed": false,
          "name": "contractAddress",
          "type": "address"
        }
      ],
      "name": "ContractCreated",
      "type": "event"
    },
    {
      "anonymous": false,
      "inputs": [
        {
          "indexed": true,
          "name": "previousOwner",
          "type": "address"
        },
        {
          "indexed": true,
          "name": "newOwner",
          "type": "address"
        }
      ],
      "name": "OwnershipTransferred",
      "type": "event"
    }
  ],
  "bytecode": "0x6060604052341561000f57600080fd5b60008054600160a060020a033316600160a060020a0319918216811790925560018054909116909117905567016345785d8a0000600255610258806100556000396000f3006060604052361561005f5763ffffffff7c01000000000000000000000000000000000000000000000000000000006000350416631c31f710811461009557806344a0d68a146100b45780638da5cb5b146100ca578063f2fde38b146100f9575b600154600160a060020a03163480156108fc0290604051600060405180830381858888f19350505050151561009357600080fd5b005b34156100a057600080fd5b610093600160a060020a0360043516610118565b34156100bf57600080fd5b610093600435610162565b34156100d557600080fd5b6100dd610182565b604051600160a060020a03909116815260200160405180910390f35b341561010457600080fd5b610093600160a060020a0360043516610191565b60005433600160a060020a0390811691161461013357600080fd5b6001805473ffffffffffffffffffffffffffffffffffffffff1916600160a060020a0392909216919091179055565b60005433600160a060020a0390811691161461017d57600080fd5b600255565b600054600160a060020a031681565b60005433600160a060020a039081169116146101ac57600080fd5b600160a060020a03811615156101c157600080fd5b600054600160a060020a0380831691167f8be0079c531659141344cd1fd0a4f28419497f9722a3daafe3b4186f6b6457e060405160405180910390a36000805473ffffffffffffffffffffffffffffffffffffffff1916600160a060020a03929092169190911790555600a165627a7a723058205de49e9c01423f2ccccbd090911c29af42c7cc9c269ca74331cacae22945beea0029",
  "source": "pragma solidity ^0.4.17;\n\nimport \"../math/SafeMath.sol\";\nimport \"../ownership/Ownable.sol\";\n\ncontract Builder is Ownable {\n    using SafeMath for uint256;\n\n    address beneficiary;\n    uint256 buildingCostWei;\n\n    event ContractCreated(address contractAddress);\n\n    function Builder() public {\n        beneficiary = msg.sender;\n        buildingCostWei = 1 * 10**17;\n    }\n\n    function processPayment() internal {\n        beneficiary.transfer(buildingCostWei);\n        if (msg.value > buildingCostWei)\n            msg.sender.transfer(msg.value.sub(buildingCostWei));\n    }\n    \n    function setBeneficiary(address _beneficiary) external onlyOwner { \n        beneficiary = _beneficiary;\n    }\n\n    function setCost(uint256 _buildingCostWei) external onlyOwner {\n        buildingCostWei = _buildingCostWei;\n    }\n\n    function () payable public {\n        beneficiary.transfer(msg.value);\n    }\n}",
  "sourcePath": "/Users/maxdinman/Documents/Sites/ethereum-poe/contracts/builder/Builder.sol",
  "schemaVersion": "1.0.0",
  "updatedAt": "2017-10-16T12:39:52.790Z"
}