{
  "contractName": "PermissionBasedPayableDocumentBuilder",
  "abi": [
    {
      "constant": false,
      "inputs": [
        {
          "name": "_beneficiary",
          "type": "address"
        }
      ],
      "name": "setBeneficiary",
      "outputs": [],
      "payable": false,
      "stateMutability": "nonpayable",
      "type": "function"
    },
    {
      "constant": false,
      "inputs": [
        {
          "name": "_buildingCostWei",
          "type": "uint256"
        }
      ],
      "name": "setCost",
      "outputs": [],
      "payable": false,
      "stateMutability": "nonpayable",
      "type": "function"
    },
    {
      "constant": false,
      "inputs": [
        {
          "name": "issuePrice",
          "type": "uint256"
        }
      ],
      "name": "create",
      "outputs": [],
      "payable": true,
      "stateMutability": "payable",
      "type": "function"
    },
    {
      "constant": true,
      "inputs": [],
      "name": "owner",
      "outputs": [
        {
          "name": "",
          "type": "address"
        }
      ],
      "payable": false,
      "stateMutability": "view",
      "type": "function"
    },
    {
      "constant": false,
      "inputs": [
        {
          "name": "newOwner",
          "type": "address"
        }
      ],
      "name": "transferOwnership",
      "outputs": [],
      "payable": false,
      "stateMutability": "nonpayable",
      "type": "function"
    },
    {
      "payable": true,
      "stateMutability": "payable",
      "type": "fallback"
    },
    {
      "anonymous": false,
      "inputs": [
        {
          "indexed": false,
          "name": "contractAddress",
          "type": "address"
        }
      ],
      "name": "ContractCreated",
      "type": "event"
    },
    {
      "anonymous": false,
      "inputs": [
        {
          "indexed": true,
          "name": "previousOwner",
          "type": "address"
        },
        {
          "indexed": true,
          "name": "newOwner",
          "type": "address"
        }
      ],
      "name": "OwnershipTransferred",
      "type": "event"
    }
  ],
  "bytecode": "0x606060405260008054600160a060020a033316600160a060020a0319918216811790925560018054909116909117905567016345785d8a0000600255610dce8061004a6000396000f300606060405236156100515763ffffffff60e060020a6000350416631c31f710811461008757806344a0d68a146100a6578063780900dc146100bc5780638da5cb5b146100c7578063f2fde38b146100f6575b600154600160a060020a03163480156108fc0290604051600060405180830381858888f19350505050151561008557600080fd5b005b341561009257600080fd5b610085600160a060020a0360043516610115565b34156100b157600080fd5b61008560043561015f565b61008560043561017f565b34156100d257600080fd5b6100da6102c3565b604051600160a060020a03909116815260200160405180910390f35b341561010157600080fd5b610085600160a060020a03600435166102d2565b60005433600160a060020a0390811691161461013057600080fd5b6001805473ffffffffffffffffffffffffffffffffffffffff1916600160a060020a0392909216919091179055565b60005433600160a060020a0390811691161461017a57600080fd5b600255565b60025460009034101561019157600080fd5b6000821161019e57600080fd5b6101a661040b565b604051809103906000f08015156101bc57600080fd5b905080600160a060020a0316633cd5d2b28360405160e060020a63ffffffff84160281526004810191909152602401600060405180830381600087803b151561020457600080fd5b6102c65a03f1151561021557600080fd5b50505080600160a060020a031663f2fde38b3360405160e060020a63ffffffff8416028152600160a060020a039091166004820152602401600060405180830381600087803b151561026657600080fd5b6102c65a03f1151561027757600080fd5b5050507fcf78cf0d6f3d8371e1075c69c492ab4ec5d8cf23a1a239b6a51a1d00be7ca31281604051600160a060020a03909116815260200160405180910390a16102bf61036d565b5050565b600054600160a060020a031681565b60005433600160a060020a039081169116146102ed57600080fd5b600160a060020a038116151561030257600080fd5b600054600160a060020a0380831691167f8be0079c531659141344cd1fd0a4f28419497f9722a3daafe3b4186f6b6457e060405160405180910390a36000805473ffffffffffffffffffffffffffffffffffffffff1916600160a060020a0392909216919091179055565b600154600254600160a060020a039091169080156108fc0290604051600060405180830381858888f1935050505015156103a657600080fd5b6002543411156103f75733600160a060020a03166108fc6103d2600254346103f990919063ffffffff16565b9081150290604051600060405180830381858888f1935050505015156103f757600080fd5b565b60008282111561040557fe5b50900390565b6040516109878061041c833901905600606060405260008054600160a060020a033316600160a060020a0319909116179055610957806100306000396000f300606060405236156100c25763ffffffff7c01000000000000000000000000000000000000000000000000000000006000350416633cd5d2b281146101055780634889da631461011b57806351b699cd146101465780635c2c20051461016557806366e6c8af1461018a5780636ecf6c17146101a957806373fea503146101cb5780638acbddf0146101ed5780638da5cb5b1461020c578063aa3ba1791461023b578063b10d6b411461024e578063ccb893f714610291578063f2fde38b146102b9575b600034116100cf57600080fd5b600054600160a060020a03163480156108fc0290604051600060405180830381858888f19350505050151561010357600080fd5b005b341561011057600080fd5b6101036004356102d8565b610132600160a060020a036004351660243561034c565b604051901515815260200160405180910390f35b341561015157600080fd5b610132600160a060020a0360043516610372565b341561017057600080fd5b610178610390565b60405190815260200160405180910390f35b341561019557600080fd5b610132600160a060020a0360043516610396565b34156101b457600080fd5b610132600160a060020a0360043516602435610426565b34156101d657600080fd5b610132600160a060020a0360043516602435610445565b34156101f857600080fd5b610132600160a060020a0360043516610483565b341561021757600080fd5b61021f610510565b604051600160a060020a03909116815260200160405180910390f35b341561024657600080fd5b61010361051f565b341561025957600080fd5b610264600435610575565b604051600160a060020a039384168152919092166020820152604080820192909252606001905180910390f35b341561029c57600080fd5b610132600160a060020a03600435811690602435166044356105a5565b34156102c457600080fd5b610103600160a060020a036004351661067d565b60005433600160a060020a039081169116146102f357600080fd5b6000811015801561030657506002548114155b151561031157600080fd5b60028190557f4e8ad04c3fba0cbea0ab1df84b92a72a289ddf64da15f4c1c396891d37c39b018160405190815260200160405180910390a150565b6000610356610718565b151561036157600080fd5b61036b8383610734565b5092915050565b600160a060020a031660009081526003602052604090205460ff1690565b60025481565b6000805433600160a060020a039081169116146103b257600080fd5b600160a060020a03821660009081526003602052604090819020805460ff191660011790557fc33baae0b20a369a6f9218cca6865e597b519996528cd4db786dbd7c5eb33ec0903390849051600160a060020a039283168152911660208201526040908101905180910390a1506001919050565b6000610430610718565b151561043b57600080fd5b61036b83836107b5565b6000600160a060020a0383161580159061047c575060008281526001602081905260409091200154600160a060020a038481169116145b9392505050565b6000805433600160a060020a0390811691161461049f57600080fd5b600160a060020a03821660009081526003602052604090819020805460ff191690557f94f4fdc69b6875c3bff2a42c3f0feda2bfe6651615f7c4869fcd20f5cfb5307d903390849051600160a060020a039283168152911660208201526040908101905180910390a1506001919050565b600054600160a060020a031681565b60005433600160a060020a0390811691161461053a57600080fd5b600054600160a060020a039081169030163180156108fc0290604051600060405180830381858888f19350505050151561057357600080fd5b565b6000908152600160208190526040909120805491810154600290910154600160a060020a03928316939290911691565b600083600160a060020a031633600160a060020a03161415156105c757600080fd5b60008281526001602081905260409091200154600160a060020a038581169116146105f157600080fd5b60008281526001602081905260409182902001805473ffffffffffffffffffffffffffffffffffffffff1916600160a060020a03861617905582907f2d72a3e944e8feae8d85647a0a70858562be2a54859852cd6152fff1ac035d64908690869051600160a060020a039283168152911660208201526040908101905180910390a25060019392505050565b60005433600160a060020a0390811691161461069857600080fd5b600160a060020a03811615156106ad57600080fd5b600054600160a060020a0380831691167f8be0079c531659141344cd1fd0a4f28419497f9722a3daafe3b4186f6b6457e060405160405180910390a36000805473ffffffffffffffffffffffffffffffffffffffff1916600160a060020a0392909216919091179055565b600061072333610372565b151561072e57600080fd5b50600190565b60025460009034101561074657600080fd5b6107508383610854565b151561075b57600080fd5b6002543411156107ac5733600160a060020a03166108fc6107876002543461091990919063ffffffff16565b9081150290604051600060405180830381858888f1935050505015156107ac57600080fd5b50600192915050565b600081815260016020819052604082200154600160a060020a038481169116146107de57600080fd5b60008281526001602081905260409182902001805473ffffffffffffffffffffffffffffffffffffffff1916905582907fc0dffbae164b623d0161811974c3fd52d435c3c91eaa665dbf2e13d74db914ae90859051600160a060020a03909116815260200160405180910390a250600192915050565b600081815260016020526040812054600160a060020a03161561087657600080fd5b6000828152600160208190526040918290208054600160a060020a033381811673ffffffffffffffffffffffffffffffffffffffff199384161784559383018054918916919092161790554360029091015583917fcd188cdb7843f0d2cf4a16b83cc2c18f10e280551d698e65e095976c2ef890f39190869051600160a060020a039283168152911660208201526040908101905180910390a250600192915050565b60008282111561092557fe5b509003905600a165627a7a723058206f68d660c0b9a7986d322d6c831e0b25a6d6c82d47a2fab143beffa78bc24f460029a165627a7a72305820f240113c25b8cc455badaf2e62a21e5cd1caf501307cc94c3610814800231da90029",
  "source": "pragma solidity ^0.4.17;\n\nimport \"./Builder.sol\";\nimport \"../document/PermissionBasedPayableDocument.sol\";\n\ncontract PermissionBasedPayableDocumentBuilder is Builder {\n    function create(uint256 issuePrice) payable external {\n        require(msg.value >= buildingCostWei);\n        require(issuePrice > 0);\n\n        PermissionBasedPayableDocument documentStorage = new PermissionBasedPayableDocument();  \n        documentStorage.setIssuePrice(issuePrice);\n        documentStorage.transferOwnership(msg.sender);      \n\n        ContractCreated(documentStorage);\n        super.processPayment();\n    }\n}",
  "sourcePath": "/Users/maxdinman/Documents/Sites/ethereum-poe/contracts/builder/PermissionBasedPayableDocumentBuilder.sol",
  "schemaVersion": "1.0.0",
  "updatedAt": "2017-10-20T08:54:02.052Z"
}