{
  "contractName": "PermissionBasedDocument",
  "abi": [
    {
      "constant": false,
      "inputs": [
        {
          "name": "recipient",
          "type": "address"
        },
        {
          "name": "document",
          "type": "bytes32"
        }
      ],
      "name": "issueDocument",
      "outputs": [
        {
          "name": "",
          "type": "bool"
        }
      ],
      "payable": true,
      "stateMutability": "payable",
      "type": "function"
    },
    {
      "constant": true,
      "inputs": [
        {
          "name": "issuer",
          "type": "address"
        }
      ],
      "name": "isAuthorised",
      "outputs": [
        {
          "name": "",
          "type": "bool"
        }
      ],
      "payable": false,
      "stateMutability": "view",
      "type": "function"
    },
    {
      "constant": false,
      "inputs": [
        {
          "name": "issuer",
          "type": "address"
        }
      ],
      "name": "authorise",
      "outputs": [
        {
          "name": "",
          "type": "bool"
        }
      ],
      "payable": false,
      "stateMutability": "nonpayable",
      "type": "function"
    },
    {
      "constant": false,
      "inputs": [
        {
          "name": "recipient",
          "type": "address"
        },
        {
          "name": "document",
          "type": "bytes32"
        }
      ],
      "name": "revokeDocument",
      "outputs": [
        {
          "name": "",
          "type": "bool"
        }
      ],
      "payable": false,
      "stateMutability": "nonpayable",
      "type": "function"
    },
    {
      "constant": true,
      "inputs": [
        {
          "name": "recipient",
          "type": "address"
        },
        {
          "name": "document",
          "type": "bytes32"
        }
      ],
      "name": "verifyDocument",
      "outputs": [
        {
          "name": "",
          "type": "bool"
        }
      ],
      "payable": false,
      "stateMutability": "view",
      "type": "function"
    },
    {
      "constant": false,
      "inputs": [
        {
          "name": "issuer",
          "type": "address"
        }
      ],
      "name": "deauthorise",
      "outputs": [
        {
          "name": "",
          "type": "bool"
        }
      ],
      "payable": false,
      "stateMutability": "nonpayable",
      "type": "function"
    },
    {
      "constant": true,
      "inputs": [],
      "name": "owner",
      "outputs": [
        {
          "name": "",
          "type": "address"
        }
      ],
      "payable": false,
      "stateMutability": "view",
      "type": "function"
    },
    {
      "constant": false,
      "inputs": [],
      "name": "widthraw",
      "outputs": [],
      "payable": false,
      "stateMutability": "nonpayable",
      "type": "function"
    },
    {
      "constant": true,
      "inputs": [
        {
          "name": "document",
          "type": "bytes32"
        }
      ],
      "name": "getDocument",
      "outputs": [
        {
          "name": "",
          "type": "address"
        },
        {
          "name": "",
          "type": "address"
        },
        {
          "name": "",
          "type": "uint256"
        }
      ],
      "payable": false,
      "stateMutability": "view",
      "type": "function"
    },
    {
      "constant": false,
      "inputs": [
        {
          "name": "owner",
          "type": "address"
        },
        {
          "name": "recipient",
          "type": "address"
        },
        {
          "name": "document",
          "type": "bytes32"
        }
      ],
      "name": "transferDocument",
      "outputs": [
        {
          "name": "",
          "type": "bool"
        }
      ],
      "payable": false,
      "stateMutability": "nonpayable",
      "type": "function"
    },
    {
      "constant": false,
      "inputs": [
        {
          "name": "newOwner",
          "type": "address"
        }
      ],
      "name": "transferOwnership",
      "outputs": [],
      "payable": false,
      "stateMutability": "nonpayable",
      "type": "function"
    },
    {
      "payable": true,
      "stateMutability": "payable",
      "type": "fallback"
    },
    {
      "anonymous": false,
      "inputs": [
        {
          "indexed": false,
          "name": "sender",
          "type": "address"
        },
        {
          "indexed": false,
          "name": "issuer",
          "type": "address"
        }
      ],
      "name": "Athorised",
      "type": "event"
    },
    {
      "anonymous": false,
      "inputs": [
        {
          "indexed": false,
          "name": "sender",
          "type": "address"
        },
        {
          "indexed": false,
          "name": "issuer",
          "type": "address"
        }
      ],
      "name": "Deathorised",
      "type": "event"
    },
    {
      "anonymous": false,
      "inputs": [
        {
          "indexed": false,
          "name": "from",
          "type": "address"
        },
        {
          "indexed": false,
          "name": "to",
          "type": "address"
        },
        {
          "indexed": true,
          "name": "document",
          "type": "bytes32"
        }
      ],
      "name": "DocumentTransfered",
      "type": "event"
    },
    {
      "anonymous": false,
      "inputs": [
        {
          "indexed": false,
          "name": "recipient",
          "type": "address"
        },
        {
          "indexed": true,
          "name": "document",
          "type": "bytes32"
        }
      ],
      "name": "DocumentRevoked",
      "type": "event"
    },
    {
      "anonymous": false,
      "inputs": [
        {
          "indexed": false,
          "name": "issuer",
          "type": "address"
        },
        {
          "indexed": false,
          "name": "recipient",
          "type": "address"
        },
        {
          "indexed": true,
          "name": "document",
          "type": "bytes32"
        }
      ],
      "name": "DocumentIssued",
      "type": "event"
    },
    {
      "anonymous": false,
      "inputs": [
        {
          "indexed": true,
          "name": "previousOwner",
          "type": "address"
        },
        {
          "indexed": true,
          "name": "newOwner",
          "type": "address"
        }
      ],
      "name": "OwnershipTransferred",
      "type": "event"
    }
  ],
  "bytecode": "0x606060405260008054600160a060020a033316600160a060020a03199091161790556107f9806100306000396000f300606060405236156100ac5763ffffffff7c01000000000000000000000000000000000000000000000000000000006000350416634889da6381146100ef57806351b699cd1461011a57806366e6c8af146101395780636ecf6c171461015857806373fea5031461017a5780638acbddf01461019c5780638da5cb5b146101bb578063aa3ba179146101ea578063b10d6b41146101fd578063ccb893f714610240578063f2fde38b14610268575b600034116100b957600080fd5b600054600160a060020a03163480156108fc0290604051600060405180830381858888f1935050505015156100ed57600080fd5b005b610106600160a060020a0360043516602435610287565b604051901515815260200160405180910390f35b341561012557600080fd5b610106600160a060020a03600435166102ad565b341561014457600080fd5b610106600160a060020a03600435166102cb565b341561016357600080fd5b610106600160a060020a036004351660243561035b565b341561018557600080fd5b610106600160a060020a036004351660243561037a565b34156101a757600080fd5b610106600160a060020a03600435166103b8565b34156101c657600080fd5b6101ce610445565b604051600160a060020a03909116815260200160405180910390f35b34156101f557600080fd5b6100ed610454565b341561020857600080fd5b6102136004356104aa565b604051600160a060020a039384168152919092166020820152604080820192909252606001905180910390f35b341561024b57600080fd5b610106600160a060020a03600435811690602435166044356104da565b341561027357600080fd5b6100ed600160a060020a03600435166105b2565b600061029161064d565b151561029c57600080fd5b6102a68383610669565b5092915050565b600160a060020a031660009081526002602052604090205460ff1690565b6000805433600160a060020a039081169116146102e757600080fd5b600160a060020a03821660009081526002602052604090819020805460ff191660011790557f5188670da5f6f84c934c6a45a13476b15bc323bafd731f60f712a1d1b0cb5c24903390849051600160a060020a039283168152911660208201526040908101905180910390a1506001919050565b600061036561064d565b151561037057600080fd5b6102a6838361072e565b6000600160a060020a038316158015906103b1575060008281526001602081905260409091200154600160a060020a038481169116145b9392505050565b6000805433600160a060020a039081169116146103d457600080fd5b600160a060020a03821660009081526002602052604090819020805460ff191690557f9762c93253f990225e394aff0913b20d2a6b01f5f2885f48621d15cac64afbcd903390849051600160a060020a039283168152911660208201526040908101905180910390a1506001919050565b600054600160a060020a031681565b60005433600160a060020a0390811691161461046f57600080fd5b600054600160a060020a039081169030163180156108fc0290604051600060405180830381858888f1935050505015156104a857600080fd5b565b6000908152600160208190526040909120805491810154600290910154600160a060020a03928316939290911691565b600083600160a060020a031633600160a060020a03161415156104fc57600080fd5b60008281526001602081905260409091200154600160a060020a0385811691161461052657600080fd5b60008281526001602081905260409182902001805473ffffffffffffffffffffffffffffffffffffffff1916600160a060020a03861617905582907f2d72a3e944e8feae8d85647a0a70858562be2a54859852cd6152fff1ac035d64908690869051600160a060020a039283168152911660208201526040908101905180910390a25060019392505050565b60005433600160a060020a039081169116146105cd57600080fd5b600160a060020a03811615156105e257600080fd5b600054600160a060020a0380831691167f8be0079c531659141344cd1fd0a4f28419497f9722a3daafe3b4186f6b6457e060405160405180910390a36000805473ffffffffffffffffffffffffffffffffffffffff1916600160a060020a0392909216919091179055565b6000610658336102ad565b151561066357600080fd5b50600190565b600081815260016020526040812054600160a060020a03161561068b57600080fd5b6000828152600160208190526040918290208054600160a060020a033381811673ffffffffffffffffffffffffffffffffffffffff199384161784559383018054918916919092161790554360029091015583917fcd188cdb7843f0d2cf4a16b83cc2c18f10e280551d698e65e095976c2ef890f39190869051600160a060020a039283168152911660208201526040908101905180910390a250600192915050565b600081815260016020819052604082200154600160a060020a0384811691161461075757600080fd5b60008281526001602081905260409182902001805473ffffffffffffffffffffffffffffffffffffffff1916905582907fc0dffbae164b623d0161811974c3fd52d435c3c91eaa665dbf2e13d74db914ae90859051600160a060020a03909116815260200160405180910390a2506001929150505600a165627a7a7230582061ba554b398e8c8f352ac4aebbd4cc4399c3efc0204194ba430322f69a17a4f10029",
  "source": "pragma solidity ^0.4.17;\n\nimport \"../core/AthorisedAccess.sol\";\nimport \"./PublicDocument.sol\";\n\n/**\n * @title PermissionBasedDocument\n * @dev Owner can authorise/deauthorise any address to allow/disallow issue and revoke documents.\n */\ncontract PermissionBasedDocument is PublicDocument, AthorisedAccess {\n    /**\n     * @dev Issues a document.\n     * @dev Can be called by the authorised issuer only.\n     */\n    function issueDocument(address recipient, bytes32 document) payable public returns (bool) {\n        require(authorisedCall());\n        super.issueDocument(recipient, document);\n    }\n\n    /**\n     * @dev Revokes document and sets the recipient to 0x0.\n     * @dev Can be called by the authorised issuer only.\n     */\n    function revokeDocument(address recipient, bytes32 document) public returns (bool) {\n        require(authorisedCall());\n        super.revokeDocument(recipient, document);\n    }\n}",
  "sourcePath": "/Users/maxdinman/Documents/Sites/ethereum-poe/contracts/document/PermissionBasedDocument.sol",
  "schemaVersion": "1.0.0",
  "updatedAt": "2017-10-16T12:39:52.792Z"
}