{
  "contractName": "PrivateDocumentBuilder",
  "abi": [
    {
      "constant": false,
      "inputs": [
        {
          "name": "_beneficiary",
          "type": "address"
        }
      ],
      "name": "setBeneficiary",
      "outputs": [],
      "payable": false,
      "stateMutability": "nonpayable",
      "type": "function"
    },
    {
      "constant": false,
      "inputs": [
        {
          "name": "_buildingCostWei",
          "type": "uint256"
        }
      ],
      "name": "setCost",
      "outputs": [],
      "payable": false,
      "stateMutability": "nonpayable",
      "type": "function"
    },
    {
      "constant": true,
      "inputs": [],
      "name": "owner",
      "outputs": [
        {
          "name": "",
          "type": "address"
        }
      ],
      "payable": false,
      "stateMutability": "view",
      "type": "function"
    },
    {
      "constant": false,
      "inputs": [],
      "name": "create",
      "outputs": [],
      "payable": true,
      "stateMutability": "payable",
      "type": "function"
    },
    {
      "constant": false,
      "inputs": [
        {
          "name": "newOwner",
          "type": "address"
        }
      ],
      "name": "transferOwnership",
      "outputs": [],
      "payable": false,
      "stateMutability": "nonpayable",
      "type": "function"
    },
    {
      "payable": true,
      "stateMutability": "payable",
      "type": "fallback"
    },
    {
      "anonymous": false,
      "inputs": [
        {
          "indexed": false,
          "name": "contractAddress",
          "type": "address"
        }
      ],
      "name": "ContractCreated",
      "type": "event"
    },
    {
      "anonymous": false,
      "inputs": [
        {
          "indexed": true,
          "name": "previousOwner",
          "type": "address"
        },
        {
          "indexed": true,
          "name": "newOwner",
          "type": "address"
        }
      ],
      "name": "OwnershipTransferred",
      "type": "event"
    }
  ],
  "bytecode": "0x606060405260008054600160a060020a033316600160a060020a0319918216811790925560018054909116909117905567016345785d8a0000600255610a708061004a6000396000f3006060604052361561006a5763ffffffff7c01000000000000000000000000000000000000000000000000000000006000350416631c31f71081146100a057806344a0d68a146100bf5780638da5cb5b146100d5578063efc81a8c14610104578063f2fde38b1461010c575b600154600160a060020a03163480156108fc0290604051600060405180830381858888f19350505050151561009e57600080fd5b005b34156100ab57600080fd5b61009e600160a060020a036004351661012b565b34156100ca57600080fd5b61009e600435610175565b34156100e057600080fd5b6100e8610195565b604051600160a060020a03909116815260200160405180910390f35b61009e6101a4565b341561011757600080fd5b61009e600160a060020a0360043516610299565b60005433600160a060020a0390811691161461014657600080fd5b6001805473ffffffffffffffffffffffffffffffffffffffff1916600160a060020a0392909216919091179055565b60005433600160a060020a0390811691161461019057600080fd5b600255565b600054600160a060020a031681565b6002546000903410156101b657600080fd5b6101be6103d2565b604051809103906000f08015156101d457600080fd5b905080600160a060020a031663f2fde38b336040517c010000000000000000000000000000000000000000000000000000000063ffffffff8416028152600160a060020a039091166004820152602401600060405180830381600087803b151561023d57600080fd5b6102c65a03f1151561024e57600080fd5b5050507fcf78cf0d6f3d8371e1075c69c492ab4ec5d8cf23a1a239b6a51a1d00be7ca31281604051600160a060020a03909116815260200160405180910390a1610296610334565b50565b60005433600160a060020a039081169116146102b457600080fd5b600160a060020a03811615156102c957600080fd5b600054600160a060020a0380831691167f8be0079c531659141344cd1fd0a4f28419497f9722a3daafe3b4186f6b6457e060405160405180910390a36000805473ffffffffffffffffffffffffffffffffffffffff1916600160a060020a0392909216919091179055565b600154600254600160a060020a039091169080156108fc0290604051600060405180830381858888f19350505050151561036d57600080fd5b6002543411156103be5733600160a060020a03166108fc610399600254346103c090919063ffffffff16565b9081150290604051600060405180830381858888f1935050505015156103be57600080fd5b565b6000828211156103cc57fe5b50900390565b604051610662806103e3833901905600606060405260008054600160a060020a033316600160a060020a0319909116179055610632806100306000396000f3006060604052361561008b5763ffffffff7c01000000000000000000000000000000000000000000000000000000006000350416634889da6381146100ce5780636ecf6c17146100f957806373fea5031461011b5780638da5cb5b1461013d578063aa3ba1791461016c578063b10d6b411461017f578063ccb893f7146101c2578063f2fde38b146101ea575b6000341161009857600080fd5b600054600160a060020a03163480156108fc0290604051600060405180830381858888f1935050505015156100cc57600080fd5b005b6100e5600160a060020a0360043516602435610209565b604051901515815260200160405180910390f35b341561010457600080fd5b6100e5600160a060020a0360043516602435610236565b341561012657600080fd5b6100e5600160a060020a036004351660243561025c565b341561014857600080fd5b61015061029a565b604051600160a060020a03909116815260200160405180910390f35b341561017757600080fd5b6100cc6102a9565b341561018a57600080fd5b6101956004356102ff565b604051600160a060020a039384168152919092166020820152604080820192909252606001905180910390f35b34156101cd57600080fd5b6100e5600160a060020a036004358116906024351660443561032f565b34156101f557600080fd5b6100cc600160a060020a0360043516610407565b6000805433600160a060020a0390811691161461022557600080fd5b61022f83836104a2565b5092915050565b6000805433600160a060020a0390811691161461025257600080fd5b61022f8383610567565b6000600160a060020a03831615801590610293575060008281526001602081905260409091200154600160a060020a038481169116145b9392505050565b600054600160a060020a031681565b60005433600160a060020a039081169116146102c457600080fd5b600054600160a060020a039081169030163180156108fc0290604051600060405180830381858888f1935050505015156102fd57600080fd5b565b6000908152600160208190526040909120805491810154600290910154600160a060020a03928316939290911691565b600083600160a060020a031633600160a060020a031614151561035157600080fd5b60008281526001602081905260409091200154600160a060020a0385811691161461037b57600080fd5b60008281526001602081905260409182902001805473ffffffffffffffffffffffffffffffffffffffff1916600160a060020a03861617905582907f2d72a3e944e8feae8d85647a0a70858562be2a54859852cd6152fff1ac035d64908690869051600160a060020a039283168152911660208201526040908101905180910390a25060019392505050565b60005433600160a060020a0390811691161461042257600080fd5b600160a060020a038116151561043757600080fd5b600054600160a060020a0380831691167f8be0079c531659141344cd1fd0a4f28419497f9722a3daafe3b4186f6b6457e060405160405180910390a36000805473ffffffffffffffffffffffffffffffffffffffff1916600160a060020a0392909216919091179055565b600081815260016020526040812054600160a060020a0316156104c457600080fd5b6000828152600160208190526040918290208054600160a060020a033381811673ffffffffffffffffffffffffffffffffffffffff199384161784559383018054918916919092161790554360029091015583917fcd188cdb7843f0d2cf4a16b83cc2c18f10e280551d698e65e095976c2ef890f39190869051600160a060020a039283168152911660208201526040908101905180910390a250600192915050565b600081815260016020819052604082200154600160a060020a0384811691161461059057600080fd5b60008281526001602081905260409182902001805473ffffffffffffffffffffffffffffffffffffffff1916905582907fc0dffbae164b623d0161811974c3fd52d435c3c91eaa665dbf2e13d74db914ae90859051600160a060020a03909116815260200160405180910390a2506001929150505600a165627a7a72305820a227045d7bbcb15c27415c13a651b67237198749bb3a03e7554285a02d709a9d0029a165627a7a723058201b6a5d1064f3e8f43d82a5652cd74ee56c3e1be97368cf4af1282704205dc1d80029",
  "source": "pragma solidity ^0.4.17;\n\nimport \"./Builder.sol\";\nimport \"../document/PrivateDocument.sol\";\n\ncontract PrivateDocumentBuilder is Builder {\n    function create() payable external {\n        require(msg.value >= buildingCostWei);\n\n        PrivateDocument documentStorage = new PrivateDocument();        \n        documentStorage.transferOwnership(msg.sender);\n\n        ContractCreated(documentStorage);\n        super.processPayment();\n    }\n}",
  "sourcePath": "/Users/maxdinman/Documents/Sites/ethereum-poe/contracts/builder/PrivateDocumentBuilder.sol",
  "schemaVersion": "1.0.0",
  "updatedAt": "2017-10-20T08:54:02.053Z"
}