{
  "contractName": "PrivateDocument",
  "abi": [
    {
      "constant": false,
      "inputs": [
        {
          "name": "recipient",
          "type": "address"
        },
        {
          "name": "document",
          "type": "bytes32"
        }
      ],
      "name": "issueDocument",
      "outputs": [
        {
          "name": "",
          "type": "bool"
        }
      ],
      "payable": true,
      "stateMutability": "payable",
      "type": "function"
    },
    {
      "constant": false,
      "inputs": [
        {
          "name": "recipient",
          "type": "address"
        },
        {
          "name": "document",
          "type": "bytes32"
        }
      ],
      "name": "revokeDocument",
      "outputs": [
        {
          "name": "",
          "type": "bool"
        }
      ],
      "payable": false,
      "stateMutability": "nonpayable",
      "type": "function"
    },
    {
      "constant": true,
      "inputs": [
        {
          "name": "recipient",
          "type": "address"
        },
        {
          "name": "document",
          "type": "bytes32"
        }
      ],
      "name": "verifyDocument",
      "outputs": [
        {
          "name": "",
          "type": "bool"
        }
      ],
      "payable": false,
      "stateMutability": "view",
      "type": "function"
    },
    {
      "constant": true,
      "inputs": [],
      "name": "owner",
      "outputs": [
        {
          "name": "",
          "type": "address"
        }
      ],
      "payable": false,
      "stateMutability": "view",
      "type": "function"
    },
    {
      "constant": false,
      "inputs": [],
      "name": "widthraw",
      "outputs": [],
      "payable": false,
      "stateMutability": "nonpayable",
      "type": "function"
    },
    {
      "constant": true,
      "inputs": [
        {
          "name": "document",
          "type": "bytes32"
        }
      ],
      "name": "getDocument",
      "outputs": [
        {
          "name": "",
          "type": "address"
        },
        {
          "name": "",
          "type": "address"
        },
        {
          "name": "",
          "type": "uint256"
        }
      ],
      "payable": false,
      "stateMutability": "view",
      "type": "function"
    },
    {
      "constant": false,
      "inputs": [
        {
          "name": "owner",
          "type": "address"
        },
        {
          "name": "recipient",
          "type": "address"
        },
        {
          "name": "document",
          "type": "bytes32"
        }
      ],
      "name": "transferDocument",
      "outputs": [
        {
          "name": "",
          "type": "bool"
        }
      ],
      "payable": false,
      "stateMutability": "nonpayable",
      "type": "function"
    },
    {
      "constant": false,
      "inputs": [
        {
          "name": "newOwner",
          "type": "address"
        }
      ],
      "name": "transferOwnership",
      "outputs": [],
      "payable": false,
      "stateMutability": "nonpayable",
      "type": "function"
    },
    {
      "payable": true,
      "stateMutability": "payable",
      "type": "fallback"
    },
    {
      "anonymous": false,
      "inputs": [
        {
          "indexed": false,
          "name": "from",
          "type": "address"
        },
        {
          "indexed": false,
          "name": "to",
          "type": "address"
        },
        {
          "indexed": true,
          "name": "document",
          "type": "bytes32"
        }
      ],
      "name": "DocumentTransfered",
      "type": "event"
    },
    {
      "anonymous": false,
      "inputs": [
        {
          "indexed": false,
          "name": "recipient",
          "type": "address"
        },
        {
          "indexed": true,
          "name": "document",
          "type": "bytes32"
        }
      ],
      "name": "DocumentRevoked",
      "type": "event"
    },
    {
      "anonymous": false,
      "inputs": [
        {
          "indexed": false,
          "name": "issuer",
          "type": "address"
        },
        {
          "indexed": false,
          "name": "recipient",
          "type": "address"
        },
        {
          "indexed": true,
          "name": "document",
          "type": "bytes32"
        }
      ],
      "name": "DocumentIssued",
      "type": "event"
    },
    {
      "anonymous": false,
      "inputs": [
        {
          "indexed": true,
          "name": "previousOwner",
          "type": "address"
        },
        {
          "indexed": true,
          "name": "newOwner",
          "type": "address"
        }
      ],
      "name": "OwnershipTransferred",
      "type": "event"
    }
  ],
  "bytecode": "0x606060405260008054600160a060020a033316600160a060020a0319909116179055610632806100306000396000f3006060604052361561008b5763ffffffff7c01000000000000000000000000000000000000000000000000000000006000350416634889da6381146100ce5780636ecf6c17146100f957806373fea5031461011b5780638da5cb5b1461013d578063aa3ba1791461016c578063b10d6b411461017f578063ccb893f7146101c2578063f2fde38b146101ea575b6000341161009857600080fd5b600054600160a060020a03163480156108fc0290604051600060405180830381858888f1935050505015156100cc57600080fd5b005b6100e5600160a060020a0360043516602435610209565b604051901515815260200160405180910390f35b341561010457600080fd5b6100e5600160a060020a0360043516602435610236565b341561012657600080fd5b6100e5600160a060020a036004351660243561025c565b341561014857600080fd5b61015061029a565b604051600160a060020a03909116815260200160405180910390f35b341561017757600080fd5b6100cc6102a9565b341561018a57600080fd5b6101956004356102ff565b604051600160a060020a039384168152919092166020820152604080820192909252606001905180910390f35b34156101cd57600080fd5b6100e5600160a060020a036004358116906024351660443561032f565b34156101f557600080fd5b6100cc600160a060020a0360043516610407565b6000805433600160a060020a0390811691161461022557600080fd5b61022f83836104a2565b5092915050565b6000805433600160a060020a0390811691161461025257600080fd5b61022f8383610567565b6000600160a060020a03831615801590610293575060008281526001602081905260409091200154600160a060020a038481169116145b9392505050565b600054600160a060020a031681565b60005433600160a060020a039081169116146102c457600080fd5b600054600160a060020a039081169030163180156108fc0290604051600060405180830381858888f1935050505015156102fd57600080fd5b565b6000908152600160208190526040909120805491810154600290910154600160a060020a03928316939290911691565b600083600160a060020a031633600160a060020a031614151561035157600080fd5b60008281526001602081905260409091200154600160a060020a0385811691161461037b57600080fd5b60008281526001602081905260409182902001805473ffffffffffffffffffffffffffffffffffffffff1916600160a060020a03861617905582907f2d72a3e944e8feae8d85647a0a70858562be2a54859852cd6152fff1ac035d64908690869051600160a060020a039283168152911660208201526040908101905180910390a25060019392505050565b60005433600160a060020a0390811691161461042257600080fd5b600160a060020a038116151561043757600080fd5b600054600160a060020a0380831691167f8be0079c531659141344cd1fd0a4f28419497f9722a3daafe3b4186f6b6457e060405160405180910390a36000805473ffffffffffffffffffffffffffffffffffffffff1916600160a060020a0392909216919091179055565b600081815260016020526040812054600160a060020a0316156104c457600080fd5b6000828152600160208190526040918290208054600160a060020a033381811673ffffffffffffffffffffffffffffffffffffffff199384161784559383018054918916919092161790554360029091015583917fcd188cdb7843f0d2cf4a16b83cc2c18f10e280551d698e65e095976c2ef890f39190869051600160a060020a039283168152911660208201526040908101905180910390a250600192915050565b600081815260016020819052604082200154600160a060020a0384811691161461059057600080fd5b60008281526001602081905260409182902001805473ffffffffffffffffffffffffffffffffffffffff1916905582907fc0dffbae164b623d0161811974c3fd52d435c3c91eaa665dbf2e13d74db914ae90859051600160a060020a03909116815260200160405180910390a2506001929150505600a165627a7a72305820a227045d7bbcb15c27415c13a651b67237198749bb3a03e7554285a02d709a9d0029",
  "source": "pragma solidity ^0.4.17;\n\nimport \"./PublicDocument.sol\";\n\n/**\n * @title PrivateDocument\n * @dev Only contract's owner can issue and revoke documents.\n */\ncontract PrivateDocument is PublicDocument {\n    /**\n     * @dev Issues a document.\n     * @dev Can be called by the current onwner only.\n     */\n    function issueDocument(address recipient, bytes32 document) payable public returns (bool) {\n        require(msg.sender == owner);\n        super.issueDocument(recipient, document);\n    }\n\n    /**\n     * @dev Revokes document and sets the recipient to 0x0.\n     * @dev Can be called by the current onwner only.\n     */\n    function revokeDocument(address recipient, bytes32 document) public returns (bool) {\n        require(msg.sender == owner);\n        super.revokeDocument(recipient, document);\n    }\n}",
  "sourcePath": "/Users/maxdinman/Documents/Sites/ethereum-poe/contracts/document/PrivateDocument.sol",
  "schemaVersion": "1.0.0",
  "updatedAt": "2017-10-20T08:54:02.054Z"
}