{
  "contractName": "PublicPayableDocument",
  "abi": [
    {
      "constant": false,
      "inputs": [
        {
          "name": "newPrice",
          "type": "uint256"
        }
      ],
      "name": "setIssuePrice",
      "outputs": [],
      "payable": false,
      "stateMutability": "nonpayable",
      "type": "function"
    },
    {
      "constant": false,
      "inputs": [
        {
          "name": "recipient",
          "type": "address"
        },
        {
          "name": "document",
          "type": "bytes32"
        }
      ],
      "name": "issueDocument",
      "outputs": [
        {
          "name": "",
          "type": "bool"
        }
      ],
      "payable": true,
      "stateMutability": "payable",
      "type": "function"
    },
    {
      "constant": true,
      "inputs": [],
      "name": "issuePrice",
      "outputs": [
        {
          "name": "",
          "type": "uint256"
        }
      ],
      "payable": false,
      "stateMutability": "view",
      "type": "function"
    },
    {
      "constant": false,
      "inputs": [
        {
          "name": "recipient",
          "type": "address"
        },
        {
          "name": "document",
          "type": "bytes32"
        }
      ],
      "name": "revokeDocument",
      "outputs": [
        {
          "name": "",
          "type": "bool"
        }
      ],
      "payable": false,
      "stateMutability": "nonpayable",
      "type": "function"
    },
    {
      "constant": true,
      "inputs": [
        {
          "name": "recipient",
          "type": "address"
        },
        {
          "name": "document",
          "type": "bytes32"
        }
      ],
      "name": "verifyDocument",
      "outputs": [
        {
          "name": "",
          "type": "bool"
        }
      ],
      "payable": false,
      "stateMutability": "view",
      "type": "function"
    },
    {
      "constant": true,
      "inputs": [],
      "name": "owner",
      "outputs": [
        {
          "name": "",
          "type": "address"
        }
      ],
      "payable": false,
      "stateMutability": "view",
      "type": "function"
    },
    {
      "constant": false,
      "inputs": [],
      "name": "widthraw",
      "outputs": [],
      "payable": false,
      "stateMutability": "nonpayable",
      "type": "function"
    },
    {
      "constant": true,
      "inputs": [
        {
          "name": "document",
          "type": "bytes32"
        }
      ],
      "name": "getDocument",
      "outputs": [
        {
          "name": "",
          "type": "address"
        },
        {
          "name": "",
          "type": "address"
        },
        {
          "name": "",
          "type": "uint256"
        }
      ],
      "payable": false,
      "stateMutability": "view",
      "type": "function"
    },
    {
      "constant": false,
      "inputs": [
        {
          "name": "owner",
          "type": "address"
        },
        {
          "name": "recipient",
          "type": "address"
        },
        {
          "name": "document",
          "type": "bytes32"
        }
      ],
      "name": "transferDocument",
      "outputs": [
        {
          "name": "",
          "type": "bool"
        }
      ],
      "payable": false,
      "stateMutability": "nonpayable",
      "type": "function"
    },
    {
      "constant": false,
      "inputs": [
        {
          "name": "newOwner",
          "type": "address"
        }
      ],
      "name": "transferOwnership",
      "outputs": [],
      "payable": false,
      "stateMutability": "nonpayable",
      "type": "function"
    },
    {
      "payable": true,
      "stateMutability": "payable",
      "type": "fallback"
    },
    {
      "anonymous": false,
      "inputs": [
        {
          "indexed": false,
          "name": "newPrice",
          "type": "uint256"
        }
      ],
      "name": "NewPriceSet",
      "type": "event"
    },
    {
      "anonymous": false,
      "inputs": [
        {
          "indexed": false,
          "name": "from",
          "type": "address"
        },
        {
          "indexed": false,
          "name": "to",
          "type": "address"
        },
        {
          "indexed": true,
          "name": "document",
          "type": "bytes32"
        }
      ],
      "name": "DocumentTransfered",
      "type": "event"
    },
    {
      "anonymous": false,
      "inputs": [
        {
          "indexed": false,
          "name": "recipient",
          "type": "address"
        },
        {
          "indexed": true,
          "name": "document",
          "type": "bytes32"
        }
      ],
      "name": "DocumentRevoked",
      "type": "event"
    },
    {
      "anonymous": false,
      "inputs": [
        {
          "indexed": false,
          "name": "issuer",
          "type": "address"
        },
        {
          "indexed": false,
          "name": "recipient",
          "type": "address"
        },
        {
          "indexed": true,
          "name": "document",
          "type": "bytes32"
        }
      ],
      "name": "DocumentIssued",
      "type": "event"
    },
    {
      "anonymous": false,
      "inputs": [
        {
          "indexed": true,
          "name": "previousOwner",
          "type": "address"
        },
        {
          "indexed": true,
          "name": "newOwner",
          "type": "address"
        }
      ],
      "name": "OwnershipTransferred",
      "type": "event"
    }
  ],
  "bytecode": "0x606060405260008054600160a060020a033316600160a060020a031990911617905561072d806100306000396000f300606060405236156100a15763ffffffff7c01000000000000000000000000000000000000000000000000000000006000350416633cd5d2b281146100e45780634889da63146100fa5780635c2c2005146101255780636ecf6c171461014a57806373fea5031461016c5780638da5cb5b1461018e578063aa3ba179146101bd578063b10d6b41146101d0578063ccb893f714610213578063f2fde38b1461023b575b600034116100ae57600080fd5b600054600160a060020a03163480156108fc0290604051600060405180830381858888f1935050505015156100e257600080fd5b005b34156100ef57600080fd5b6100e260043561025a565b610111600160a060020a03600435166024356102be565b604051901515815260200160405180910390f35b341561013057600080fd5b61013861033f565b60405190815260200160405180910390f35b341561015557600080fd5b610111600160a060020a0360043516602435610345565b341561017757600080fd5b610111600160a060020a03600435166024356103e4565b341561019957600080fd5b6101a1610422565b604051600160a060020a03909116815260200160405180910390f35b34156101c857600080fd5b6100e2610431565b34156101db57600080fd5b6101e6600435610487565b604051600160a060020a039384168152919092166020820152604080820192909252606001905180910390f35b341561021e57600080fd5b610111600160a060020a03600435811690602435166044356104b7565b341561024657600080fd5b6100e2600160a060020a036004351661058f565b60005433600160a060020a0390811691161461027557600080fd5b600081101561028357600080fd5b60028190557f4e8ad04c3fba0cbea0ab1df84b92a72a289ddf64da15f4c1c396891d37c39b018160405190815260200160405180910390a150565b6002546000903410156102d057600080fd5b6102da838361062a565b15156102e557600080fd5b6002543411156103365733600160a060020a03166108fc610311600254346106ef90919063ffffffff16565b9081150290604051600060405180830381858888f19350505050151561033657600080fd5b50600192915050565b60025481565b600081815260016020819052604082200154600160a060020a0384811691161461036e57600080fd5b60008281526001602081905260409182902001805473ffffffffffffffffffffffffffffffffffffffff1916905582907fc0dffbae164b623d0161811974c3fd52d435c3c91eaa665dbf2e13d74db914ae90859051600160a060020a03909116815260200160405180910390a250600192915050565b6000600160a060020a0383161580159061041b575060008281526001602081905260409091200154600160a060020a038481169116145b9392505050565b600054600160a060020a031681565b60005433600160a060020a0390811691161461044c57600080fd5b600054600160a060020a039081169030163180156108fc0290604051600060405180830381858888f19350505050151561048557600080fd5b565b6000908152600160208190526040909120805491810154600290910154600160a060020a03928316939290911691565b600083600160a060020a031633600160a060020a03161415156104d957600080fd5b60008281526001602081905260409091200154600160a060020a0385811691161461050357600080fd5b60008281526001602081905260409182902001805473ffffffffffffffffffffffffffffffffffffffff1916600160a060020a03861617905582907f2d72a3e944e8feae8d85647a0a70858562be2a54859852cd6152fff1ac035d64908690869051600160a060020a039283168152911660208201526040908101905180910390a25060019392505050565b60005433600160a060020a039081169116146105aa57600080fd5b600160a060020a03811615156105bf57600080fd5b600054600160a060020a0380831691167f8be0079c531659141344cd1fd0a4f28419497f9722a3daafe3b4186f6b6457e060405160405180910390a36000805473ffffffffffffffffffffffffffffffffffffffff1916600160a060020a0392909216919091179055565b600081815260016020526040812054600160a060020a03161561064c57600080fd5b6000828152600160208190526040918290208054600160a060020a033381811673ffffffffffffffffffffffffffffffffffffffff199384161784559383018054918916919092161790554360029091015583917fcd188cdb7843f0d2cf4a16b83cc2c18f10e280551d698e65e095976c2ef890f39190869051600160a060020a039283168152911660208201526040908101905180910390a250600192915050565b6000828211156106fb57fe5b509003905600a165627a7a72305820769385fff57658432dc930ff290cf7bb96723bec42fabedbcc30dc39f36f86b60029",
  "source": "pragma solidity ^0.4.17;\n\nimport \"../math/SafeMath.sol\";\nimport \"./PublicDocument.sol\";\n\n/**\n * @title PublicPayableDocument\n * @dev Charges a fixed fee (goes to the contract's owner) for document issue. \n *      Anyone who knows the contract address can issue and revoke documents.\n */\ncontract PublicPayableDocument is PublicDocument {\n    using SafeMath for uint256;\n    \n    event NewPriceSet(uint256 newPrice);\n    \n    uint256 public issuePrice;\n\n    /**\n     * @dev Issues a document for a fixed fee.\n     * @dev Can be called by anyone who knows the contract address.\n     */\n    function issueDocument(address recipient, bytes32 document) payable public returns (bool) {\n        require(msg.value >= issuePrice);\n        require(super.issueDocument(recipient, document));\n\n        if (msg.value > issuePrice)\n            msg.sender.transfer(msg.value.sub(issuePrice));\n\n        return true;\n    }\n\n    /**\n     * @dev Set a fixed fee for document issue.\n     */\n    function setIssuePrice(uint256 newPrice) onlyOwner external {\n        require(newPrice >= 0);\n        \n        issuePrice = newPrice;\n        NewPriceSet(newPrice);\n    }\n}",
  "sourcePath": "/Users/maxdinman/Documents/Sites/ethereum-poe/contracts/document/PublicPayableDocument.sol",
  "schemaVersion": "1.0.0",
  "updatedAt": "2017-10-16T12:39:52.792Z"
}