{
  "contractName": "RevokableDocument",
  "abi": [
    {
      "constant": false,
      "inputs": [
        {
          "name": "recipient",
          "type": "address"
        },
        {
          "name": "document",
          "type": "bytes32"
        }
      ],
      "name": "issueDocument",
      "outputs": [
        {
          "name": "",
          "type": "bool"
        }
      ],
      "payable": true,
      "stateMutability": "payable",
      "type": "function"
    },
    {
      "constant": false,
      "inputs": [
        {
          "name": "recipient",
          "type": "address"
        },
        {
          "name": "document",
          "type": "bytes32"
        }
      ],
      "name": "revokeDocument",
      "outputs": [
        {
          "name": "",
          "type": "bool"
        }
      ],
      "payable": false,
      "stateMutability": "nonpayable",
      "type": "function"
    },
    {
      "constant": true,
      "inputs": [],
      "name": "owner",
      "outputs": [
        {
          "name": "",
          "type": "address"
        }
      ],
      "payable": false,
      "stateMutability": "view",
      "type": "function"
    },
    {
      "constant": false,
      "inputs": [
        {
          "name": "newOwner",
          "type": "address"
        }
      ],
      "name": "transferOwnership",
      "outputs": [],
      "payable": false,
      "stateMutability": "nonpayable",
      "type": "function"
    },
    {
      "anonymous": false,
      "inputs": [
        {
          "indexed": false,
          "name": "recipient",
          "type": "address"
        },
        {
          "indexed": true,
          "name": "document",
          "type": "bytes32"
        }
      ],
      "name": "DocumentRevoked",
      "type": "event"
    },
    {
      "anonymous": false,
      "inputs": [
        {
          "indexed": false,
          "name": "issuer",
          "type": "address"
        },
        {
          "indexed": false,
          "name": "recipient",
          "type": "address"
        },
        {
          "indexed": true,
          "name": "document",
          "type": "bytes32"
        }
      ],
      "name": "DocumentIssued",
      "type": "event"
    },
    {
      "anonymous": false,
      "inputs": [
        {
          "indexed": true,
          "name": "previousOwner",
          "type": "address"
        },
        {
          "indexed": true,
          "name": "newOwner",
          "type": "address"
        }
      ],
      "name": "OwnershipTransferred",
      "type": "event"
    }
  ],
  "bytecode": "0x606060405260008054600160a060020a033316600160a060020a0319909116179055610334806100306000396000f300606060405263ffffffff7c01000000000000000000000000000000000000000000000000000000006000350416634889da63811461005d5780636ecf6c17146100885780638da5cb5b146100aa578063f2fde38b146100d957600080fd5b610074600160a060020a03600435166024356100fa565b604051901515815260200160405180910390f35b341561009357600080fd5b610074600160a060020a03600435166024356101bf565b34156100b557600080fd5b6100bd61025e565b604051600160a060020a03909116815260200160405180910390f35b34156100e457600080fd5b6100f8600160a060020a036004351661026d565b005b600081815260016020526040812054600160a060020a03161561011c57600080fd5b6000828152600160208190526040918290208054600160a060020a033381811673ffffffffffffffffffffffffffffffffffffffff199384161784559383018054918916919092161790554360029091015583917fcd188cdb7843f0d2cf4a16b83cc2c18f10e280551d698e65e095976c2ef890f39190869051600160a060020a039283168152911660208201526040908101905180910390a250600192915050565b600081815260016020819052604082200154600160a060020a038481169116146101e857600080fd5b60008281526001602081905260409182902001805473ffffffffffffffffffffffffffffffffffffffff1916905582907fc0dffbae164b623d0161811974c3fd52d435c3c91eaa665dbf2e13d74db914ae90859051600160a060020a03909116815260200160405180910390a250600192915050565b600054600160a060020a031681565b60005433600160a060020a0390811691161461028857600080fd5b600160a060020a038116151561029d57600080fd5b600054600160a060020a0380831691167f8be0079c531659141344cd1fd0a4f28419497f9722a3daafe3b4186f6b6457e060405160405180910390a36000805473ffffffffffffffffffffffffffffffffffffffff1916600160a060020a03929092169190911790555600a165627a7a72305820da86598b518cf2729a1ed3120df55e83ca3f86c18af4f8734908130abc6433a60029",
  "source": "pragma solidity ^0.4.17;\n\nimport \"./BasicDocument.sol\";\n\n/**\n * @title RevokableDocument\n * @dev This contract supports revokable documents.\n */\ncontract RevokableDocument is BasicDocument {\n    event DocumentRevoked(address recipient, bytes32 indexed document);\n\n    /**\n     * @dev Revokes existing document and sets the recipient to 0x0.\n     */\n    function revokeDocument(address recipient, bytes32 document) public returns (bool) {\n        require(documents[document].recipient == recipient);\n        documents[document].recipient = address(0);\n\n        DocumentRevoked(recipient, document);\n\n        return true;\n    }\n}",
  "sourcePath": "/Users/maxdinman/Documents/Sites/ethereum-poe/contracts/core/RevokableDocument.sol",
  "schemaVersion": "1.0.0",
  "updatedAt": "2017-10-20T08:54:02.053Z"
}