{
  "contractName": "TransfarableDocument",
  "abi": [
    {
      "constant": false,
      "inputs": [
        {
          "name": "recipient",
          "type": "address"
        },
        {
          "name": "document",
          "type": "bytes32"
        }
      ],
      "name": "issueDocument",
      "outputs": [
        {
          "name": "",
          "type": "bool"
        }
      ],
      "payable": true,
      "stateMutability": "payable",
      "type": "function"
    },
    {
      "constant": true,
      "inputs": [],
      "name": "owner",
      "outputs": [
        {
          "name": "",
          "type": "address"
        }
      ],
      "payable": false,
      "stateMutability": "view",
      "type": "function"
    },
    {
      "constant": false,
      "inputs": [
        {
          "name": "owner",
          "type": "address"
        },
        {
          "name": "recipient",
          "type": "address"
        },
        {
          "name": "document",
          "type": "bytes32"
        }
      ],
      "name": "transferDocument",
      "outputs": [
        {
          "name": "",
          "type": "bool"
        }
      ],
      "payable": false,
      "stateMutability": "nonpayable",
      "type": "function"
    },
    {
      "constant": false,
      "inputs": [
        {
          "name": "newOwner",
          "type": "address"
        }
      ],
      "name": "transferOwnership",
      "outputs": [],
      "payable": false,
      "stateMutability": "nonpayable",
      "type": "function"
    },
    {
      "anonymous": false,
      "inputs": [
        {
          "indexed": false,
          "name": "from",
          "type": "address"
        },
        {
          "indexed": false,
          "name": "to",
          "type": "address"
        },
        {
          "indexed": true,
          "name": "document",
          "type": "bytes32"
        }
      ],
      "name": "DocumentTransfered",
      "type": "event"
    },
    {
      "anonymous": false,
      "inputs": [
        {
          "indexed": false,
          "name": "issuer",
          "type": "address"
        },
        {
          "indexed": false,
          "name": "recipient",
          "type": "address"
        },
        {
          "indexed": true,
          "name": "document",
          "type": "bytes32"
        }
      ],
      "name": "DocumentIssued",
      "type": "event"
    },
    {
      "anonymous": false,
      "inputs": [
        {
          "indexed": true,
          "name": "previousOwner",
          "type": "address"
        },
        {
          "indexed": true,
          "name": "newOwner",
          "type": "address"
        }
      ],
      "name": "OwnershipTransferred",
      "type": "event"
    }
  ],
  "bytecode": "0x606060405260008054600160a060020a033316600160a060020a0319909116179055610373806100306000396000f300606060405263ffffffff7c01000000000000000000000000000000000000000000000000000000006000350416634889da63811461005d5780638da5cb5b14610088578063ccb893f7146100b7578063f2fde38b146100df57600080fd5b610074600160a060020a0360043516602435610100565b604051901515815260200160405180910390f35b341561009357600080fd5b61009b6101c5565b604051600160a060020a03909116815260200160405180910390f35b34156100c257600080fd5b610074600160a060020a03600435811690602435166044356101d4565b34156100ea57600080fd5b6100fe600160a060020a03600435166102ac565b005b600081815260016020526040812054600160a060020a03161561012257600080fd5b6000828152600160208190526040918290208054600160a060020a033381811673ffffffffffffffffffffffffffffffffffffffff199384161784559383018054918916919092161790554360029091015583917fcd188cdb7843f0d2cf4a16b83cc2c18f10e280551d698e65e095976c2ef890f39190869051600160a060020a039283168152911660208201526040908101905180910390a250600192915050565b600054600160a060020a031681565b600083600160a060020a031633600160a060020a03161415156101f657600080fd5b60008281526001602081905260409091200154600160a060020a0385811691161461022057600080fd5b60008281526001602081905260409182902001805473ffffffffffffffffffffffffffffffffffffffff1916600160a060020a03861617905582907f2d72a3e944e8feae8d85647a0a70858562be2a54859852cd6152fff1ac035d64908690869051600160a060020a039283168152911660208201526040908101905180910390a25060019392505050565b60005433600160a060020a039081169116146102c757600080fd5b600160a060020a03811615156102dc57600080fd5b600054600160a060020a0380831691167f8be0079c531659141344cd1fd0a4f28419497f9722a3daafe3b4186f6b6457e060405160405180910390a36000805473ffffffffffffffffffffffffffffffffffffffff1916600160a060020a03929092169190911790555600a165627a7a7230582091bcfa6938565de26a71d0f5ad0afd2f2856ff7c6c2331562e92843d7f8a79da0029",
  "source": "pragma solidity ^0.4.17;\n\nimport \"./BasicDocument.sol\";\n\n/**\n * @title TransfarableDocument\n * @dev This contract supports documents transfer between accounts.\n */\ncontract TransfarableDocument is BasicDocument {\n    event DocumentTransfered(address from, address to, bytes32 indexed document);\n\n    /**\n     * @dev Transfers existing document to another account.\n     */\n    function transferDocument(address owner, address recipient, bytes32 document) external returns (bool) {\n        require(msg.sender == owner);\n        require(documents[document].recipient == owner);\n        documents[document].recipient = recipient;\n\n        DocumentTransfered(owner, recipient, document);\n        \n        return true;\n    }\n}",
  "sourcePath": "/Users/maxdinman/Documents/Sites/ethereum-poe/contracts/core/TransfarableDocument.sol",
  "schemaVersion": "1.0.0",
  "updatedAt": "2017-10-16T12:39:52.791Z"
}